:020000040000FA
:100000008316D53081003030860083128601872127
:10001000861406158721872187218721872186104D
:1000200006118721861406158721872187218721BC
:1000300087218610061187218614061587218721BE
:1000400087218721872186100611872186140615AE
:100050008721872187218721872186100611872103
:1000600086140615872187218721872187218610FD
:10007000061187210614861587218721872187216C
:10008000872106108611872106148615872187216E
:10009000872187218721061086118721061486155E
:1000A00087218721872187218721061086118721B3
:1000B000061486158721872187218721872106102D
:1000C000861187210614861587218721872187219C
:1000D000872106108611872106148615872187211E
:1000E000872187218721061086118721061406158E
:1000F00087218721872187218721061006118721E3
:10010000861406158721872187218721872186105C
:1001100006118721861406158721872187218721CB
:100120008721861006118721861EA02805148617B0
:100130008721872187218721872186138721AA2864
:10014000861406158721872187218721872186101C
:10015000061187210617872187218721872187217B
:100160000613872106178721872187218721872169
:100170000613872106178721872187218721872159
:100180000613872106178721872187218721872149
:100190000613872106178721872187218721872139
:1001A0000613872106178721872187218721872129
:1001B00006138721861486158721872187218721A9
:1001C00087218610861187218614061587218721AD
:1001D000872187218721861006118721861406151D
:1001E0008721872187218721872186100611872172
:1001F00006178721872187218721872106138721D9
:1002000006148615872187218721872187210610DB
:10021000861187210614861587218721872187214A
:1002200087210610861187210614861587218721CC
:1002300087218721872106108611872106148615BC
:100240008721872187218721872106108611872111
:10025000061486158721872187218721872106108B
:1002600086118721061787218721872187218721EA
:100270000613872106178721872187218721872158
:100280000613872106178721872187218721872148
:100290000613872106178721872187218721872138
:1002A0000613872106178721872187218721872128
:1002B0000613872104309000061406158721872134
:1002C00087218721872106100611872186140615AC
:1002D0008721872187218721872186100611872181
:1002E00086148615872187218721872187218610FB
:1002F000861187218614061587218721872187216A
:100300008721861006118721900B5C299029FF30E8
:100310008E00FF308F008F0B8B298E0B89290800F0
:02032000630078
:02400E00F13F80
:00000001FF
